:107E000001C0AAC0112484B7882349F0982F9A7022
:107E1000923029F081FF02C097EF94BFD5D085E062
:107E20008093810082E08093C00088E18093C1004C
:107E300086E08093C20083E18093C4008EE0AFD0DF
:107E4000259A84E091E0109285001092840096BB00
:107E5000B09BFECF1D9AA8958150A9F7C0E0D0E055
:107E600092D0813471F48FD0182F9FD0123811F432
:107E700082E005C0113811F486E001C083E07CD0B7
:107E800068C0823411F484E103C0853419F485E0BC
:107E900094D05FC0853541F476D0C82F74D0D0E03F
:107EA000D82BCC0FDD1F54C0863521F484E085D05B
:107EB00080E0E5CF843679F566D065D0D82E63D0E2
:107EC000F82E00E011E05FD0F80181938F01DE12FF
:107ED000FACF6BD0F5E4FF1201C0FFCF40E050E0D5
:107EE00063E0CE0139D07E0100E011E0F80140816D
:107EF000818150E0582B61E0C7012ED0F2E0EF0EF7
:107F0000F11C0E5F1F4FD012F1CF40E050E065E052
:107F1000CE0122D01EC0843771F435D034D0F82E73
:107F200032D043D08E01F80185918F0125D0FA948B
:107F3000F110F9CF0EC0853739F437D08EE11CD05F
:107F400085E91AD08FE09BCF813511F488E027D0E6
:107F50002CD080E111D084CFFC010A0167BFE895E5
:107F6000112407B600FCFDCF667029F0452B19F4EB
:107F700081E187BFE89508959091C00095FFFCCFFF
:107F80008093C60008958091C00087FFFCCF809148
:107F9000C00084FD01C0A8958091C6000895E0E668
:107FA000F0E098E1908380830895EDDF803219F04E
:107FB00088E0F5DFFFCF84E1DFCFCF93C82FE3DF89
:107FC000C150E9F7CF91F1CF282E80E0E8DFE0E063
:047FD000FF270994EA
:027FFE00020679
:0400000300007E007B
:00000001FF
